:100000000C9463000C948B000C948B000C948B006C
:100010000C948B000C948B000C948B000C948B0034
:100020000C948B000C948B000C948B000C94D201DC
:100030000C948B000C948B000C948B000C948B0014
:100040000C9480030C948B000C94B7040C948B00DC
:100050000C948B000C948B000C948B000C948B00F4
:100060000C948B000C948B000000000024002700EF
:100070002A0000000000250028002B0000000000DE
:1000800023002600290004040404040404040202DA
:100090000202020203030303030301020408102007
:1000A0004080010204081020010204081020000012
:1000B0000007000201000003040600000000000029
:1000C00000008F02000611241FBECFEFD8E0DEBF74
:1000D000CDBF11E0A0E0B1E0EEE8F0E102C0059094
:1000E0000D92A031B107D9F711E0A0E1B1E001C054
:1000F0001D92AF3EB107E1F710E0C6ECD0E004C0BE
:100100002297FE010E944108C23CD107C9F70E9414
:1001100079030C9445080C940000FC0180911001B7
:100120008C3090F480838F5F80931001815090E039
:10013000FC01EE0FFF1FE80FF91FEF5EFE4F88EB8B
:100140009BE09283818308958FEF80830895FC0163
:1001500020812C30C0F58181992787FD909548E852
:1001600050E0481B590B440F551F440F551F64178F
:10017000750784F08281992787FD909548E552E0C4
:10018000481B590B440F551F440F551F6417750723
:100190000CF4AB01CA01AA2797FDA095BA2F0697C8
:1001A000A109B109880F991FAA1FBB1F4FB7F89467
:1001B00030E0F901EE0FFF1FE20FF31FEF5EFE4F7D
:1001C000928381834FBF0895AF92BF92CF92DF9207
:1001D000EF92FF920F931F93CF93DF93EC019B015C
:1001E00082E0603278070CF048C077FF03C020E05F
:1001F00030E005C0653B710514F024EB30E000D021
:1002000000D0B901882777FD8095982F2981332761
:1002100027FD3095B8E8AB2EB12CA21AB30AAA0C70
:10022000BB1CAA0CBB1CCC24B7FCC094DC2CEA8100
:10023000FF27E7FDF09528E532E02E1B3F0B220F4C
:10024000331F220F331F442737FD4095542FEDB73E
:10025000FEB7218332834383548320E030E040E0C3
:1002600050E0E4EBEE2EF12C012D112D0E946707DA
:100270009B010F900F900F900F90CE01B9010E943B
:10028000A700DF91CF911F910F91FF90EF90DF902A
:10029000CF90BF90AF900895CF92DF92EF92FF92F0
:1002A0001F93CF93DF93EC01162F7A0169018881A8
:1002B0008C3008F064C0862F61E00E944A04888177
:1002C00090E0FC01EE0FFF1FE80FF91FEF5EFE4FFD
:1002D0001F738081807C812B808380E292E08E1965
:1002E0009F0964E070E00E94DB07698380E699E083
:1002F0008C199D0964E070E00E94DB076A83A88185
:100300008A2F6CE00E94CF07682F70E0AB01440F8A
:10031000551F460F571F440F551F440F551F20E010
:1003200030E0C901840F951FFC01EE0FFF1FE80F9D
:10033000F91FEF5EFE4F808186FD15C02F5F3F4F96
:100340002C30310571F724C01092800082E0809338
:1003500081001092850010928400B19A80916F0004
:10036000826080936F008A2F90E0FC01EE0FFF1FE8
:10037000E80FF91FEF5EFE4F8081806480838881E3
:10038000DF91CF911F91FF90EF90DF90CF90089574
:10039000672BD1F2E8CF40E252E020E639E00E943C
:1003A0004C0108951F920F920FB60F9211242F93B4
:1003B0003F934F935F936F937F938F939F93AF93ED
:1003C000BF93EF93FF938091350187FF05C0109293
:1003D0008500109284002BC020913501332727FD22
:1003E00030958091100190E02817390704F580912D
:1003F0003501992787FD9095FC01EE0FFF1FE80F4F
:10040000F91FEF5EFE4F808186FF11C0809135019C
:10041000992787FD9095FC01EE0FFF1FE80FF91F4C
:10042000EF5EFE4F80818F7360E00E946A048091CE
:1004300035018F5F8093350120913501332727FDEA
:1004400030958091100190E0281739070CF04EC0CC
:10045000809135018C300CF049C02091840030919E
:10046000850080913501992787FD9095FC01EE0F5D
:10047000FF1FE80FF91FEF5EFE4F81819281280F69
:10048000391F309389002093880080913501992786
:1004900087FD9095FC01EE0FFF1FE80FF91FEF5E3F
:1004A000FE4F808186FF2AC080913501992787FD04
:1004B0009095FC01EE0FFF1FE80FF91FEF5EFE4F56
:1004C00080818F7361E00E946A0418C080E49CE917
:1004D00005C08091840090918500049690938900D6
:1004E000809388008FEF8093350108C0809184004D
:1004F0009091850084549C4948F3EBCFFF91EF9194
:10050000BF91AF919F918F917F916F915F914F912B
:100510003F912F910F900FBE0F901F90189586E37B
:1005200091E00E948D0089E391E00E948D008CE3B0
:1005300091E00E948D0008956F927F928F929F921A
:10054000AF92BF92CF92DF92EF92FF920F931F93E1
:10055000809102010E942C049093420180934101FA
:1005600000D000D0AA2797FDA095BA2FF3EB6F2EED
:10057000712C812C912CEDB7FEB76182728283823F
:100580009482BC01CD0120E030E040E050E0EFEF8C
:10059000EE2EE3E0FE2E012D112DAA24BB246501D1
:1005A0000E9467079B01AC0170934A016093490167
:1005B0000F900F900F900F908CE391E0B9010E9483
:1005C000E400809100010E942C04909344018093E8
:1005D000430100D000D0AA2797FDA095BA2FEDB710
:1005E000FEB76182728283829482BC01CD0120E0D9
:1005F00030E040E050E00E9467079B0170934801A3
:100600006093470163EB70E0621B730B70934C01C6
:1006100060934B010F900F900F900F9089E391E042
:100620000E94E40080913F010E942C0490934601B7
:100630008093450100D000D0AA2797FDA095BA2F3E
:10064000EDB7FEB76182728283829482BC01CD01D4
:1006500020E030E040E050E00E9467079B01AC01E1
:1006600070934E0160934D010F900F900F900F907B
:1006700086E391E0B9010E94E40040914D01509160
:100680004E01662757FD6095762F8CED91E02AE0AC
:1006900030E00E945C0768EC70E080E090E00E942F
:1006A000C8031F910F91FF90EF90DF90CF90BF9004
:1006B000AF909F908F907F906F90089586E391E028
:1006C0006BE070E00E94CB0189E391E069E070E0AB
:1006D0000E94CB018CE391E06AE070E00E94CB01C4
:1006E0008CED91E040E855E260E070E00E94F40497
:1006F00008950E94F2030E945E030E949C02FDCFB7
:100700001F920F920FB60F9211242F933F938F9346
:100710009F93AF93BF938091530190915401A09107
:100720005501B0915601309157010196A11DB11D9F
:10073000232F2D5F2D3720F02D570196A11DB11DC0
:10074000209357018093530190935401A093550136
:10075000B093560180914F0190915001A0915101A9
:10076000B09152010196A11DB11D80934F0190934C
:100770005001A0935101B0935201BF91AF919F914D
:100780008F913F912F910F900FBE0F901F90189552
:10079000EF92FF920F931F937B018C018FB7F89418
:1007A000409153015091540160915501709156014F
:1007B0008FBF2FB7F8948091530190915401A0916D
:1007C0005501B09156012FBF841B950BA60BB70B9B
:1007D000E816F9060A071B0760F71F910F91FF90B3
:1007E000EF900895789484B5826084BD84B581606B
:1007F00084BD85B5826085BD85B5816085BDEEE629
:10080000F0E0808181608083E1E8F0E080818260B7
:100810008083808181608083E0E8F0E08081816076
:100820008083E1EBF0E0808184608083E0EBF0E0A6
:10083000808181608083EAE7F0E08081846080834A
:1008400080818260808380818160808380818068F4
:1008500080831092C10008958F7090910401929549
:10086000990F990F907C982B90937C0080917A003F
:10087000806480937A0080917A0086FDFCCF20917D
:10088000780040917900942F80E030E0282B392BBC
:10089000C9010895282F30E0C90186569F4FFC01F9
:1008A00094912A573F4FF9018491882391F0E82FC2
:1008B000F0E0EE0FFF1FE859FF4FA591B4916623BA
:1008C00029F48C91909589238C9308958C91892B90
:1008D0008C930895482F50E0CA0182559F4FFC0128
:1008E0002491CA0186569F4FFC0194914A575F4F4D
:1008F000FA0134913323D1F1222331F1233021F451
:10090000809180008F7705C0243031F48091800081
:100910008F7D8093800018C0213019F484B58F77C3
:1009200004C0223021F484B58F7D84BD0DC02630F3
:1009300021F48091B0008F7705C0273029F4809191
:10094000B0008F7D8093B000E32FF0E0EE0FFF1F2B
:10095000EE58FF4FA591B491662329F48C919095A0
:1009600089238C9308958C91892B8C9308951F92E1
:100970000F920FB60F9211242F933F934F935F93D3
:100980006F937F938F939F93AF93BF93EF93FF9357
:100990004091C600E091D801F091D901CF010196B4
:1009A00060E870E00E94DB079C018091DA01909181
:1009B000DB012817390739F0E85AFE4F408330939E
:1009C000D9012093D801FF91EF91BF91AF919F91F1
:1009D0008F917F916F915F914F913F912F910F90E8
:1009E0000FBE0F901F9018955F926F927F928F921B
:1009F0009F92AF92BF92CF92DF92EF92FF920F93AE
:100A00001F93CF93DF93EC013A014B01413482E411
:100A100058078FE0680780E078070CF07FC060E837
:100A200074E88EE190E0A40193010E941008215027
:100A3000304040405040CA01B90122E030E040E07F
:100A400050E00E94100859016A01A6019501209505
:100A500030954095509594E0220F331F441F551F49
:100A60009A95D1F760E074E284EF90E00E9410085C
:100A7000CA01B9012FEF30E040E050E00E94B0071A
:100A8000A40193010E941008C90181509F4F1816BC
:100A900019061CF4522E5A9403C055245394521A2A
:100AA00060E079E08DE390E0A40193010E941008DA
:100AB0002150304040405040CA01B90122E030E0AE
:100AC00040E050E00E9410082095309540955095E8
:100AD00083E0220F331F441F551F8A95D1F760E032
:100AE00074E284EF90E00E941008CA01B9012FEF70
:100AF00030E040E050E00E94B007A40193010E9462
:100B00001008C90181509F4F181619061CF4822F36
:100B1000815002C081E0821B851500F5E885F985CA
:100B200081E090E00A8802C0880F991F0A94E2F7DA
:100B3000808360E079E08DE390E0A40193010E945E
:100B400010082150304040405040CA01B90122E015
:100B500030E040E050E00E94100804C0E885F985CC
:100B600010829501EC81FD813083EE81FF8120832D
:100B7000EA85FB85208141E050E0CA010E8402C075
:100B8000880F991F0A94E2F7282B2083EA85FB85BA
:100B90002081CA010F8402C0880F991F0A94E2F7CE
:100BA000282B2083EA85FB858081088802C0440FBA
:100BB000551F0A94E2F7842B8083DF91CF911F9118
:100BC0000F91FF90EF90DF90CF90BF90AF909F90EC
:100BD0008F907F906F905F900895FC01A085B18504
:100BE00021898C9190E0022E02C0959587950A94F8
:100BF000E2F780FFF6CF0484F585E02D6083089549
:100C000089E091E09093DD018093DC0188E591E03B
:100C10009093DF018093DE0185EC90E09093E101F9
:100C20008093E00184EC90E09093E3018093E201F3
:100C300080EC90E09093E5018093E40181EC90E0FA
:100C40009093E7018093E60186EC90E09093E901B0
:100C50008093E80184E08093EA0183E08093EB01D4
:100C600087E08093EC0185E08093ED0181E0809343
:100C7000EE0108950F931F93CF93DF938C01EB0147
:100C800009C02196D801ED91FC910190F081E02DF1
:100C9000C801099568816623A1F7DF91CF911F9163
:100CA0000F910895EF92FF920F931F93CF93DF93CD
:100CB0008C017B01EA010CC0D7016D917D01D80147
:100CC000ED91FC910190F081E02DC80109952197EB
:100CD000209791F7DF91CF911F910F91FF90EF90A7
:100CE00008950F931F938C01DC01ED91FC9101900D
:100CF000F081E02D6DE00995D801ED91FC91019016
:100D0000F081E02DC8016AE009951F910F910895C7
:100D10002F923F924F925F926F927F928F929F920B
:100D2000AF92BF92CF92DF92EF92FF920F931F93F9
:100D3000DF93CF93CDB7DEB7A0970FB6F894DEBFA1
:100D40000FBECDBF1C016A017B0141155105610534
:100D5000710549F4DC01ED91FC910190F081E02DE9
:100D600060E3099554C0882499245401422E5524E7
:100D70006624772401E010E00C0F1D1F080D191DDB
:100D8000C701B601A30192010E94EE07F80160833A
:100D90000894811C911CA11CB11CC701B601A301C0
:100DA00092010E94EE07C901DA016C017D01C114B4
:100DB000D104E104F104F1F681E0E82EF12CEC0E0F
:100DC000FD1EE80CF91C3E010894611C711CD50144
:100DD000C4010197A109B1096C01C818D90814C050
:100DE000F601EE0DFF1D60816A3010F4605D01C0F8
:100DF000695CD101ED91FC910190F081E02DC10180
:100E000009950894E108F1086E147F0449F7A0964B
:100E10000FB6F894DEBF0FBECDBFCF91DF911F910B
:100E20000F91FF90EF90DF90CF90BF90AF909F9089
:100E30008F907F906F905F904F903F902F9008958C
:100E4000EF92FF920F931F93CF93DF93EC017A0100
:100E50008B0177FF0FC0E881F9810190F081E02DCF
:100E60006DE2099510950095F094E094E11CF11C59
:100E7000011D111DCE01B801A7012AE00E948806BC
:100E8000DF91CF911F910F91FF90EF900895DC01BA
:100E90002115310541F4ED91FC910190F081E02D97
:100EA000642F099508952A30310519F40E9420070E
:100EB00008950E94880608950F931F938C010E9445
:100EC0004707C8010E9471061F910F9108952F9244
:100ED0003F924F925F926F927F928F929F92AF92CA
:100EE000BF92CF92DF92EF92FF920F931F93DF9307
:100EF000CF93CDB7DEB73B014C0119012A016D89B3
:100F00007E898F89988D6A197B098C099D09621ADF
:100F1000730A840A950AA40193010E94B007E2189B
:100F2000F30804091509A80197010E9410082A0D69
:100F30003B1D4C1D5D1DB901CA01CF91DF911F9171
:100F40000F91FF90EF90DF90CF90BF90AF909F9068
:100F50008F907F906F905F904F903F902F9008956B
:100F6000629FD001739FF001829FE00DF11D649F8D
:100F7000E00DF11D929FF00D839FF00D749FF00D19
:100F8000659FF00D9927729FB00DE11DF91F639FBA
:100F9000B00DE11DF91FBD01CF0111240895991B6A
:100FA00079E004C0991F961708F0961B881F7A9560
:100FB000C9F78095089597FB092E07260AD077FD7B
:100FC00004D049D006D000201AF4709561957F4F67
:100FD0000895F6F7909581959F4F0895A1E21A2EF6
:100FE000AA1BBB1BFD010DC0AA1FBB1FEE1FFF1FCD
:100FF000A217B307E407F50720F0A21BB30BE40B1D
:10100000F50B661F771F881F991F1A9469F7609563
:101010007095809590959B01AC01BD01CF0108951D
:1010200097FB092E05260ED057FD04D0D7DF0AD036
:10103000001C38F450954095309521953F4F4F4F07
:101040005F4F0895F6F790958095709561957F4F65
:101050008F4F9F4F0895AA1BBB1B51E107C0AA1FCA
:10106000BB1FA617B70710F0A61BB70B881F991F49
:101070005A95A9F780959095BC01CD010895EE0F82
:0E108000FF1F0590F491E02D0994F894FFCF26
:10108E00010002000100000000ED053A06520600C4
:00000001FF
